{
  "contractName": "ChainList",
  "abi": [
    {
      "constant": true,
      "inputs": [
        {
          "name": "",
          "type": "uint256"
        }
      ],
      "name": "articles",
      "outputs": [
        {
          "name": "id",
          "type": "uint256"
        },
        {
          "name": "seller",
          "type": "address"
        },
        {
          "name": "buyer",
          "type": "address"
        },
        {
          "name": "name",
          "type": "string"
        },
        {
          "name": "party",
          "type": "string"
        },
        {
          "name": "price",
          "type": "uint256"
        },
        {
          "name": "count",
          "type": "uint256"
        }
      ],
      "payable": false,
      "stateMutability": "view",
      "type": "function"
    },
    {
      "inputs": [],
      "payable": false,
      "stateMutability": "nonpayable",
      "type": "constructor"
    },
    {
      "anonymous": false,
      "inputs": [
        {
          "indexed": true,
          "name": "_id",
          "type": "uint256"
        },
        {
          "indexed": true,
          "name": "_seller",
          "type": "address"
        },
        {
          "indexed": false,
          "name": "_name",
          "type": "string"
        },
        {
          "indexed": false,
          "name": "_price",
          "type": "uint256"
        }
      ],
      "name": "LogSellArticles",
      "type": "event"
    },
    {
      "anonymous": false,
      "inputs": [
        {
          "indexed": true,
          "name": "_id",
          "type": "uint256"
        },
        {
          "indexed": true,
          "name": "_seller",
          "type": "address"
        },
        {
          "indexed": true,
          "name": "_buyer",
          "type": "address"
        },
        {
          "indexed": false,
          "name": "_name",
          "type": "string"
        },
        {
          "indexed": false,
          "name": "_price",
          "type": "uint256"
        }
      ],
      "name": "LogBuyArticles",
      "type": "event"
    },
    {
      "constant": false,
      "inputs": [
        {
          "name": "_name",
          "type": "string"
        },
        {
          "name": "_party",
          "type": "string"
        },
        {
          "name": "_price",
          "type": "uint256"
        }
      ],
      "name": "addACandidate",
      "outputs": [],
      "payable": false,
      "stateMutability": "nonpayable",
      "type": "function"
    },
    {
      "constant": true,
      "inputs": [],
      "name": "getNumberOfArticles",
      "outputs": [
        {
          "name": "",
          "type": "uint256"
        }
      ],
      "payable": false,
      "stateMutability": "view",
      "type": "function"
    },
    {
      "constant": true,
      "inputs": [],
      "name": "getCandidateForVoting",
      "outputs": [
        {
          "name": "",
          "type": "uint256[]"
        }
      ],
      "payable": false,
      "stateMutability": "view",
      "type": "function"
    },
    {
      "constant": false,
      "inputs": [
        {
          "name": "_id",
          "type": "uint256"
        }
      ],
      "name": "castAVote",
      "outputs": [],
      "payable": true,
      "stateMutability": "payable",
      "type": "function"
    }
  ],
  "bytecode": "0x6060604052341561000f57600080fd5b3373ffffffffffffffffffffffffffffffffffffffff166000809054906101000a90505050610a0a806100436000396000f30060606040526004361061006d576000357c0100000000000000000000000000000000000000000000000000000000900463ffffffff168063022660cc14610072578063156072e21461011b57806331edd3321461018557806389da85d31461019d578063edcfafe6146101c6575b600080fd5b341561007d57600080fd5b610119600480803590602001908201803590602001908080601f0160208091040260200160405190810160405280939291908181526020018383808284378201915050505050509190803590602001908201803590602001908080601f01602080910402602001604051908101604052809392919081815260200183838082843782019150505050505091908035906020019091905050610383565b005b341561012657600080fd5b61012e6105ba565b6040518080602001828103825283818151815260200191508051906020019060200280838360005b83811015610171578082015181840152602081019050610156565b505050509050019250505060405180910390f35b61019b6004808035906020019091905050610659565b005b34156101a857600080fd5b6101b061089b565b6040518082815260200191505060405180910390f35b34156101d157600080fd5b6101e760048080359060200190919050506108a5565b604051808881526020018773ffffffffffffffffffffffffffffffffffffffff1673ffffffffffffffffffffffffffffffffffffffff1681526020018673ffffffffffffffffffffffffffffffffffffffff1673ffffffffffffffffffffffffffffffffffffffff16815260200180602001806020018581526020018481526020018381038352878181546001816001161561010002031660029004815260200191508054600181600116156101000203166002900480156102ea5780601f106102bf576101008083540402835291602001916102ea565b820191906000526020600020905b8154815290600101906020018083116102cd57829003601f168201915b505083810382528681815460018160011615610100020316600290048152602001915080546001816001161561010002031660029004801561036d5780601f106103425761010080835404028352916020019161036d565b820191906000526020600020905b81548152906001019060200180831161035057829003601f168201915b5050995050505050505050505060405180910390f35b60026000815480929190600101919050555060e06040519081016040528060025481526020013373ffffffffffffffffffffffffffffffffffffffff168152602001600073ffffffffffffffffffffffffffffffffffffffff16815260200184815260200183815260200182815260200160008152506001600060025481526020019081526020016000206000820151816000015560208201518160010160006101000a81548173ffffffffffffffffffffffffffffffffffffffff021916908373ffffffffffffffffffffffffffffffffffffffff16021790555060408201518160020160006101000a81548173ffffffffffffffffffffffffffffffffffffffff021916908373ffffffffffffffffffffffffffffffffffffffff16021790555060608201518160030190805190602001906104c2929190610925565b5060808201518160040190805190602001906104df929190610925565b5060a0820151816005015560c082015181600601559050503373ffffffffffffffffffffffffffffffffffffffff166002547ff226348a411f6e8a8fbf55cb39442c578e766df839551fdcf4527fd5fb2f8ac985846040518080602001838152602001828103825284818151815260200191508051906020019080838360005b8381101561057a57808201518184015260208101905061055f565b50505050905090810190601f1680156105a75780820380516001836020036101000a031916815260200191505b50935050505060405180910390a3505050565b6105c26109a5565b6105ca6109a5565b6000806002546040518059106105dd5750595b908082528060200260200182016040525092506000915060009050600190505b60025481111515610650576001600082815260200190815260200160002060000154838381518110151561062d57fe5b9060200190602002018181525050818060010192505080806001019150506105fd565b82935050505090565b60008060025411151561066b57600080fd5b60008211801561067d57506002548211155b151561068857600080fd5b600160008381526020019081526020016000209050338160020160006101000a81548173ffffffffffffffffffffffffffffffffffffffff021916908373ffffffffffffffffffffffffffffffffffffffff1602179055508060010160009054906101000a900473ffffffffffffffffffffffffffffffffffffffff1673ffffffffffffffffffffffffffffffffffffffff166108fc349081150290604051600060405180830381858888f19350505050151561074457600080fd5b80600601600081548092919060010191905055508060020160009054906101000a900473ffffffffffffffffffffffffffffffffffffffff1673ffffffffffffffffffffffffffffffffffffffff168160010160009054906101000a900473ffffffffffffffffffffffffffffffffffffffff1673ffffffffffffffffffffffffffffffffffffffff16837fee1f72254b434b4c654a88aac8b0a64a867c13b3e6487bdceb6abab9fe5c9b6e84600301856005015460405180806020018381526020018281038252848181546001816001161561010002031660029004815260200191508054600181600116156101000203166002900480156108885780601f1061085d57610100808354040283529160200191610888565b820191906000526020600020905b81548152906001019060200180831161086b57829003601f168201915b5050935050505060405180910390a45050565b6000600254905090565b60016020528060005260406000206000915090508060000154908060010160009054906101000a900473ffffffffffffffffffffffffffffffffffffffff16908060020160009054906101000a900473ffffffffffffffffffffffffffffffffffffffff1690806003019080600401908060050154908060060154905087565b828054600181600116156101000203166002900490600052602060002090601f016020900481019282601f1061096657805160ff1916838001178555610994565b82800160010185558215610994579182015b82811115610993578251825591602001919060010190610978565b5b5090506109a191906109b9565b5090565b602060405190810160405280600081525090565b6109db91905b808211156109d75760008160009055506001016109bf565b5090565b905600a165627a7a723058200e2c28f80a8407d06d4f254d578d8170aabe51a9ad08b1fc3eb27bc5d17dffba0029",
  "source": "pragma solidity ^0.4.15;\ncontract ChainList{\n\n  struct Article{\n    uint id;\n    address seller;\n    address buyer;\n    string name;\n    string party;\n    uint256 price;\n    uint256 count;\n  }\n\n  modifier onlyAdmin(){\n    require(msg.sender == admin);\n    _;\n  }\n\n  address admin;\n\n  mapping(uint => Article) public articles;\n  uint articleCounter;\n\n//Add a candidate\n  event LogSellArticles(\n    uint indexed _id,\n    address indexed _seller,\n    string _name,\n    uint256 _price\n  );\n\n  //cast a vote\n  event LogBuyArticles(\n    uint indexed _id,\n    address indexed _seller,\n    address indexed _buyer,\n    string _name,\n    uint256 _price\n  );\n\n  function ChainList() public {\n    admin == msg.sender;\n  }\n\n  function addACandidate(string _name, string _party, uint256 _price) public {\n    articleCounter++;\n\n    articles[articleCounter] = Article(\n      articleCounter,\n      msg.sender,\n      0x0,\n      _name,\n      _party,\n      _price,\n      0x0\n    );\n\n    LogSellArticles(articleCounter, msg.sender, _name, _price);\n  }\n\n  function getNumberOfArticles() public view returns (uint){\n    return articleCounter;\n  }\n\n  function getCandidateForVoting() public view returns (uint[]){\n    uint[] memory articleIds = new uint[](articleCounter);\n    uint numberOfCandidatesForVoting = 0;\n    uint i=0;\n\n    for(i =1; i<=articleCounter; i++){\n        articleIds[numberOfCandidatesForVoting] = articles[i].id;\n        numberOfCandidatesForVoting++;\n    }\n    return articleIds;\n  }\n\n\n  function castAVote(uint _id) payable public {\n    require(articleCounter > 0);\n    require(_id > 0 && _id <= articleCounter);\n    Article storage article = articles[_id];\n\n    article.buyer = msg.sender;\n    article.seller.transfer(msg.value);\n    article.count++;\n    LogBuyArticles(_id, article.seller, article.buyer, article.name, article.price);\n  }\n}\n",
  "sourcePath": "/home/sumit/Final/VoteEth/Training/chainlist/contracts/ChainList.sol",
  "compiler": {
    "name": "solc",
    "version": "0.4.19+commit.c4cbbb05.Emscripten.clang"
  },
  "schemaVersion": "2.0.0",
  "updatedAt": "2019-04-16T17:04:23.424Z"
}